:1000000098200020AD130000A9130000A9130000E0
:1000100000000000000000000000000000000000E0
:10002000000000000000000000000000A913000014
:100030000000000000000000A9130000A913000048
:10004000A9130000A9130000A9130000A9130000C0
:10005000A9130000A9130000A9130000A9130000B0
:10006000A9130000A9130000A9130000A9130000A0
:10007000A9130000A9130000A9130000A913000090
:10008000A9130000A9130000A9130000A913000080
:10009000A9130000A9130000A9130000A913000070
:1000A000A9130000A9130000A9130000A913000060
:1000B00010B5064C2378002B07D1054B002B02D03E
:1000C000044800E000BF0123237010BD0C00002095
:1000D000000000009C1B000008B5084B002B03D05B
:1000E0000748084900E000BF07480368002B03D019
:1000F000064B002B00D0984708BDC046000000000A
:100100009C1B0000100000209C1B00000000000051
:1001100010B50020084B9847084CFA218900A047E9
:10012000074B1860FA218900A047064B186005228A
:10013000054B1A6010BDC046611100005516000045
:10014000040000200000002010E000E030B5084B63
:100150001C68084A00258021490206E0002C04D0D2
:100160005460956013680B42FCD00138F6D230BD64
:100170000400002010E000E070B5214B8022D20581
:100180001A6000225A60FF21198100219A72DA72E6
:100190009620800118620120242418552524185522
:1001A00026201A5427201A549A622C201A542D20E3
:1001B0001A545A611A82DA76197619775976132207
:1001C0009A76597780225203DA600E4A1A630E4AF1
:1001D0005A63012252429A63DA630C4E1D1C0C4C86
:1001E000301C0C492A1CA0470028F9D1074B1A687B
:1001F000D369002BFCD1116802230B43136070BD3F
:100200002800002002001600020017008C000020C9
:100210009D0A00000014004238B5011C0378002B31
:1002200006D0431C0122094D1C78002C04D100E0AB
:100230000022013292B205E0013292B20133AA42A9
:10024000F2D100220248034B984738BDFFFF00005F
:100250008C000020850D000030B583B0011C01AB7F
:10026000114A1088188092789A700B78002B06D06B
:100270004B1C01220D4D1C78002C04D100E0002203
:10028000013292B205E0013292B20133AA42F2D1B8
:100290000022074D281C074CA047281C01A9032257
:1002A000A04703B030BDC046541A0000FFFF000055
:1002B0008C000020850D000000B585B001A90A2240
:1002C000044B9847044801A90C22044B984705B0F9
:1002D00000BDC046D90500008C000020850D00003F
:1002E00030B585B001A90A22094B9847094D281C51
:1002F00001A90C22084CA047084B1A8869460A80BD
:100300009B788B70281C0322A04705B030BDC046E7
:10031000D90500008C000020850D0000541A000053
:1003200030B587B02549264B9847264B9847051C82
:1003300002AC0023029303930493A381A373211CB3
:100340000A22214B9847A378002B06D00323191CBF
:1003500002AA9A5C002A1DD100E0022102AA5318C9
:1003600000225A70092D07DC02AA981E007850540A
:10037000013B30221A7007E04A1E02AB985C5854C9
:10038000581802380078985406AB591812392E23A1
:100390000B7002E001330E2BD9D10C4D281C02A9A1
:1003A0000F220B4CA04701A90A4B1A880A809B78A0
:1003B0008B70281C0322A04707B030BD0000C84244
:1003C000391700008D190000D90500008C000020AD
:1003D000850D0000541A000000B583B001A9087013
:1003E00000234B7002480222024B984703B000BD25
:1003F0008C000020850D000010B54A1E92B2012A23
:1004000002D0510805D112E003784278027043709F
:100410000DE0031C82180130013989B240181978A7
:1004200014781C7011700133013A8342F7D110BD6A
:1004300070B584B0002201AB1A706A460532002301
:10044000012430263125011C19410C4201D01570C0
:1004500000E0167001330132092BF4D101A8092103
:10046000074B984762236A46138006486946022272
:10047000054B984701A8054B984704B070BDC0468E
:10048000F90300008C000020850D000059020000D7
:1004900070B586B0FF2803D8C0B2144B984722E04D
:1004A000002201AB1A706A4605320023012430266F
:1004B0003125011C19410C4201D0157000E0167065
:1004C00001330132102BF4D101A81121084B9847B8
:1004D00062236A461380074869460222064B984702
:1004E00001A8064B984706B070BDC0463104000015
:1004F000F90300008C000020850D00005902000067
:10050000F0B55F4656464D464446F0B487B08B463C
:10051000002942D0171C931E222B40D80A2A44D10E
:10052000002842DA3DE003ACA246294B9946294A0D
:10053000904610E0281C391CC8470E1C281C391C8A
:10054000C047051C092E03DC30362670013402E05A
:10055000573626700134002DECD1544529D05D4624
:10056000019B002B03D001352D235A46137003AB9A
:100570009C420ED9013C2A1C68460B30231C19787A
:100580001170013B01328342F9D103ABE41A01340B
:100590002D1900232B70584612E0002010E0002097
:1005A0000EE0454201230193BDE7051C00220192A4
:1005B000B9E70020391C074B984700250026C3E700
:1005C00007B03CBC90469946A246AB46F0BDC0463B
:1005D000DD1600005516000008B5014B984708BD10
:1005E000010500000C4B1B68002B10D1EFF31083AA
:1005F000002B09D172B6BFF35F8F0022074B1A7030
:100600000122074B1A7002E00022054B1A70024BC0
:100610001A6801321A607047680000200800002044
:100620006C000020084B1A68013A1A601B68002B06
:1006300009D1064B1B78002B05D00122044B1A7000
:10064000BFF35F8F62B67047680000206C00002027
:1006500008000020F0B583B001AC012565700027CB
:10066000A77025703E20211C064EB0478022D2057F
:10067000054B9A61277065700F20211CB04703B0AD
:10068000F0BDC0468D0600008044004100B583B037
:1006900001AB80221A700A785A704A789A708A7868
:1006A000DA70191C014B984703B000BD55130000C8
:1006B00010B5031C4908402099420CD30024C91AE4
:1006C000601C80B28B4201D8041CF8E74020FF2C4C
:1006D00001D81480002010BDF0B55F4656464D4647
:1006E0004446F0B487B0061C0D1C049210AA107882
:1006F000321C424340248A4200D9B3E0002B4BD144
:100700000021321C5E4CA04783462E1C002700208F
:100710000021002200233F24A4460125A846029080
:1007200003916146203903D440468840814605E064
:10073000202165464C1B4046E040814641466446C8
:10074000A1408A46101C191C80185941021C0B1C20
:100750005D464C46254202D0424602430B1C9F4256
:100760000CD801D1964209D8921BBB415046029D3C
:1007700028434946039C2143029003916546013D6D
:10078000AC46CED2029803993C4B3B4A121A8B419D
:10079000120C1B041A4362E00022012B5FD14F0FA1
:1007A000B946CD00AB460021321C0023344CA04793
:1007B000061C0F1C00230125029603979A465046FB
:1007C000C0B2059000218846002200233F24271C48
:1007D000203F03D42E1CBE40019604E02020071BBE
:1007E000291CF94001912E1CA6400096101C191CD2
:1007F00080185941021C0B1C5F463740BC46019EC5
:100800004F463E4067463E4302D02A1C02430B1C23
:10081000039898420BD802D10299914207D8029EC0
:10082000039F921BBB41474600980743B846013CD3
:10083000CDD2414652468B1ADB08124CA34208D94E
:10084000059A0132D2B205920126B2445746082FCA
:10085000B5D140240598082804D042031A43049CCB
:1008600022800024201C07B03CBC90469946A2463A
:10087000AB46F0BDC046C0460000000001000000CD
:10088000F5160000FF1F000010B582B0041C0F4BCE
:100890001B78002B01D000290DD001A90C7013206A
:1008A0000B4B984713200B4B9847084B5C70012269
:1008B0001A70002007E0054B5A781D20141B621E99
:1008C00094416442204002B010BDC0467000002038
:1008D00079120000ED110000444B984233D006D845
:1008E000434B98420DD0434B98421BD06FE0424B94
:1008F00098424AD0414B984258D0414B984266D1D9
:1009000032E0012965D0002904D0022906D003294C
:1009100006D001E03B4867E0002065E03A4863E02C
:100920003A4861E0012956D0002904D0022906D0B6
:10093000032906D001E0032056E0002054E03448AB
:1009400052E0344850E0012947D0002904D0022960
:1009500006D0032906D001E02F4845E0002043E0FF
:100960002E4841E02E483FE0012938D0002904D02C
:10097000022906D0032906D001E02A4834E00020ED
:1009800032E0294830E029482EE0012929D0002909
:1009900004D0022906D0032906D001E0244823E030
:1009A000002021E023481FE023481DE001291AD040
:1009B000002904D0022906D0032906D001E01F48EF
:1009C00012E0002010E01E480EE01E480CE000205F
:1009D0000AE01D4808E01D4806E01D4804E01D48E7
:1009E00002E01D4800E01D487047C046001000426C
:1009F00000080042000C004200180042001C0042A7
:100A00000014004203000400030006000300070076
:100A100003001E0003001F000300080003000A007B
:100A200003000B000300100003001200030013007A
:100A300003000C0003000E0003000F00030016006B
:100A40000300180003001900030005000300010063
:100A5000030009000300110003000D00030017004C
:100A600070B586B00C4A6B4670CA70C332CA32C3C6
:100A7000009E864206D001239A006946525882425F
:100A800003D100E00023D8B203E00133062BF3D1F9
:100A9000002006B070BDC046581A0000F0B55F4691
:100AA00056464D464446F0B491B0051C0C1C161C2D
:100AB0002960081C9E4B9847021C23680520D90713
:100AC00000D52DE123681C209F0700D528E1994B14
:100AD000186A911C01278F40391C014319620FA924
:100AE0002D27F35D0B701432D2B29046101C924B3E
:100AF00098474046914B9847F05D0021904B9847AE
:100B0000F37A6B712423F35CAB712523F35CEB71F7
:100B1000F37E2B72337F6B7229688846081C844BE6
:100B20009847143000226B46DA84328A029280237E
:100B3000DB019A4221D08023DB019A4204D8802332
:100B40009B019A4211D008E0C023DB01029F9F4223
:100B50000FD080231B029F4203D010270697002747
:100B60000EE00327069700270AE0102706970127C3
:100B700006E008270697012702E0082706970027C6
:100B800031680391F268914673690493317E8A4615
:100B90002623F35C9B467368002B13D080225205FA
:100BA00093422ED12723F35C002B2ED1376AC0B29B
:100BB000644B9847011C381C6A462632624B9847A2
:100BC000031C1FE02723F35C002B0AD0069A009237
:100BD000306AB16A6A4626323B1C5C4FB847031C38
:100BE00010E0316A0791C0B2564B9847011C069A33
:100BF000009207986A4626323B1C544FB847031CA4
:100C000000E00023181E00D08AE0737E002B02D083
:100C1000B37E41468B732A68029FD369002BFCD1B7
:100C200002976B4626331B88424693814B46039FAF
:100C30003B43049F3B4371680B43029F1F43524653
:100C400013021F4359464B071F432723F35C002B16
:100C500001D104231F43717E8902337F5B02194354
:100C6000F27AB37A13431943737F1B021943242387
:100C7000F35C5B0419432523F35C1B04194333899C
:100C8000FF2B0BD0F27E002A03D0A022D204174300
:100C900002E0802252041743194305E0F37E002B43
:100CA00002D08023DB041F432C23F35C002B03D1F1
:100CB000274B9B789A0701D580231F432A68D36965
:100CC000002BFCD1434659602A68D369002BFCD124
:100CD00041460F600EAB80221A7000225A70DA7003
:100CE0009A70326B0A92736B0B93B76B0C97F66B1F
:100CF0000D9600250EAE174FE9B2AB000AAA985820
:100D0000002802D1201C144A9047431C04D03070A4
:100D1000000CC0B2311CB8470135042DECD10020C5
:100D200011B03CBC90469946A246AB46F0BDC046C9
:100D3000610A00000004004079120000ED1100007B
:100D40008908000095120000B1060000D9060000D5
:100D50000020004155130000D908000010B50368B9
:100D6000C2791C20002A0CD01A7E0520D40708D591
:100D7000DA69002AFCD1198502211A7E0A42FCD0C8
:100D8000002010BDF0B557464E464546E0B4061C5F
:100D900088461720002A4AD0F3791C20002B46D021
:100DA0003468E369002BFCD1924600270125224AD2
:100DB00091461FE0227E2A4204D1012B29D0013B1B
:100DC000002BF7D17B1C9BB24246D15D7279012A80
:100DD00001D01F1C05E0BA1C97B24246D35C1B022F
:100DE0001943301C154B98475346013B9BB29A461A
:100DF000002B16D0237E2B42E4D14B46DAE7227E2D
:100E00000A4208D1012B08D0013B002BF7D100206A
:100E10000DE012200BE0002009E0122007E0002086
:100E200005E0237E9A07FAD4034B0221E7E71CBCB6
:100E300090469946A246F0BDFFFF00005D0D000000
:100E400008B5082834D880001B4B1B589F468020CB
:100E5000000230E0194B18692DE0194B186A800523
:100E6000800F184BC340181C25E0144B586922E032
:100E7000124B1B68022018401DD011491022CB686C
:100E80001A42FCD00D4B1B685A0713D500200E4B9D
:100E900098470A4B9B681B041B0C58430BE05023DC
:100EA000074AD35C00205A0705D5044BD86802E0F6
:100EB000002000E0054808BD701A00007400002002
:100EC0000008004000127A0095120000006CDC025D
:100ED00070B50C4B1C6A017885784078012210406F
:100EE00080014026B44304432A40D0018022944329
:100EF000221C0243032001400902034802400A4326
:100F00001A6270BD00080040FFFCFFFF082843D8AC
:100F10008000224B1B589F4600203EE0204B196A60
:100F200002220A431A62002037E01D4B996902220F
:100F30000A439A61002030E0194B198A02220A43C1
:100F40001A82002029E0164B998A02220A439A82CB
:100F5000002022E0134B196802220A431A601A6823
:100F6000114B1A400E4B9A84191C1022CB681A425E
:100F7000FCD00C4A91680A4BD96251689962126898
:100F800092B29A84002008E0054A4423D05C0221F2
:100F90000143D154002000E017207047941A00004C
:100FA00000080040740000207FFF000030B585B0CD
:100FB000C222D2001A4B9A601A4B5A681E218A43E9
:100FC0005A6001236A4613700024174DE0B2694647
:100FD000A8470134252CF9D103A800244470012529
:100FE00085700470114B98470620114B9847114BA0
:100FF0009847114B1C725C729C72DC7201956B46B7
:101000005C7006236A46137014725472002069469D
:101010000A4B984700200A4B984705B030BDC046A0
:10102000000800400040004179120000D10E00008D
:101030000D0F000045100000000400406910000082
:101040001D110000064B996908220A439A6101228A
:10105000044B1A70191C0B781342FCD17047C04620
:1010600000040040000C0040F8B5061C071C0D7879
:101070002D0205434B78002B02D08023DB021D4359
:101080004B7A002B02D080231B031D434C68012C9C
:1010900017D9631E1C420FD1022C06D9022300224D
:1010A00001325B009C42FBD800E00022170237436C
:1010B00080235B031D4304E02702374380239B0208
:1010C0001D430B7A002B02D080239B031D430F4A44
:1010D00053785BB2002BFBDB0D4B98470D4B1E701A
:1010E0000A4A53785BB2002BFBDB084B9F601A1C4B
:1010F00053785BB2002BFBDB044B59688022520211
:101100000A4015435D60044B9847F8BD000C004051
:10111000E5050000080C00402506000010B5041C81
:101120000B4A53785BB2002BFBDB0A4B98470A4B08
:101130001C70074A53785BB2002BFBDB044B5968E9
:10114000802252020A435A60044B984710BDC046A1
:10115000000C0040E5050000040C004025060000DE
:1011600070B5041C1A4A53785BB2002BFBDB194B99
:101170009847194B1C70164A53785BB2002BFBDB67
:10118000134E7068C004C00E144B9847051C124BD8
:101190001C707668F602F60F114B1C700C4A5378DF
:1011A0005BB2002BFBDB0A4B9C68240AA4B20D4BFC
:1011B0009847002E07D1012C07D9281C211C0A4B67
:1011C0009847051C01E00134E540281C70BDC0466D
:1011D000000C0040E5050000040C0040410E00003A
:1011E000080C0040250600005516000010B5041C30
:1011F000064B9847064B1C70064B59888022D2013B
:101200000A435A80044B984710BDC046E5050000CC
:10121000020C0040000C00402506000010B5041C24
:101220000F4B98470F4B1C700F4B58880005000F51
:1012300059880E4A0A405A8059880D4A0A405A80F5
:10124000191C8022D2014B881342FCD1064B0102AB
:101250005888064A02400A435A80064B984710BDF8
:10126000E5050000020C0040000C0040FFF0FFFF0D
:10127000FFBFFFFF2506000010B50C7824020443D1
:10128000024B9847A4B2024B5C8010BD1D120000B7
:10129000000C004010B5041C064B9847064B1C7010
:1012A000064B5C882405240F054B9847201C054BF2
:1012B000984710BDE5050000020C0040000C0040FE
:1012C000250600006111000030B5D378002B1ED137
:1012D0001378802B04D01B0680246402234300E093
:1012E000002354780225AC430AD19478002C03D112
:1012F0008024A402234302E0C024E402234341608B
:101300005478013C012C04D8114C234001E0416089
:1013100000230D042D0CA024E4052C431C438462FF
:101320000D0CD02424062C431C438462D478002C5A
:101330000CD15C0305D59378012B01D1816100E0CC
:1013400041615378013B012B00D8816030BDC0461C
:10135000FFFFFBFF08B5031C0A1CC1090020002980
:1013600003D15809C001044940181F210B40012135
:101370009940024B984708BD00440041C912000043
:101380007047C04608B5044B9847044B9847044B38
:101390009847044B984708BDAD0F00005506000064
:1013A0008113000081130000FEE7C04670B52C4B8E
:1013B0002C4A9A4203D02C4B294A9A4204D32B4BF5
:1013C0002B4A9A4210D31BE02A4B27480330C01AFD
:1013D00080080130800000232149224AD458CC5093
:1013E00004338342FAD1EAE7214B1A1D1F49033126
:1013F000891A890889005218002102C39342FCD13E
:101400001D4BFF211D4A8A439A60022190235B00F5
:101410001B4AD1501B4BD87803218843022210432A
:10142000D870DD780C24A54308200543DD70164BE9
:101430009E7B3025AE43202535439D739D7BA54380
:1014400028439873987B884302439A730F4B5968DB
:1014500080220A435A600E4B98470E4B9847FEE78E
:10146000000000209C1B00000C00002098000020C1
:101470000C0000200400002000ED00E0000000004F
:101480000070004100500041004800410040004110
:10149000091A000099140000F0B5474680B44B4B80
:1014A00098474B4B98474B4CA047A0474A484B4B5B
:1014B0009847102501244A4F4A4E201CB847642003
:1014C000B0476400A4B2013D002DF6D110240125DF
:1014D000454B9846454F464E2DB2281CC047381CF8
:1014E000B04764203F4B98476D00ADB2013C002CE3
:1014F000F2D14048394B984720250124384F394EC6
:10150000201CB8476420B0476400013D002DF7D18E
:101510000AE064000134A4B2201CB8476420B0473C
:10152000013D002DF5D10AE00120334B984764209E
:101530002C4B98470F2501242F4F2A4EE9E72F48BF
:10154000264FB8472E482A4CA0472E482E4DA84774
:101550002E4E301CA0472E48A0472E48A847301CCE
:10156000A0472D48A0472D48A847301CA0472C482D
:10157000A0472C48A847301CA0472B48A0472B4821
:10158000A847301CA0472A48A0472A48A847301C33
:10159000A0472948A0472948A847301CA047284809
:1015A000A0472848A847301CA0472748A0472748FD
:1015B000A8471048B8474120254CA0476C20A047B9
:1015C0006C20A047002004BC9046F0BD85130000AD
:1015D0001101000079010000B81A00005902000052
:1015E000E10200004D010000B9020000C41A000031
:1015F00019020000141B000091040000C81A00002A
:10160000D81A00002B18153C21030000E41A000032
:10161000E81A0000355EBA3DF41A0000C3F5683FD1
:10162000FC1A00009A991141041B00000000B64208
:101630000C1B000000806344181B000000300E46A5
:10164000241B000000BCB147301B0000002B5E498A
:10165000D9030000002934D00123002210B48842AD
:101660002CD301242407A14204D2814202D20901D1
:101670001B01F8E7E400A14204D2814202D24900F2
:101680005B00F8E7884201D3401A1A434C08A04295
:1016900002D3001B5C0822438C08A04202D3001B2B
:1016A0009C082243CC08A04202D3001BDC08224342
:1016B000002803D01B0901D00909E3E7101C10BC66
:1016C0007047002801D00020C04307B4024802A19F
:1016D0004018029003BDC046190000000029F0D058
:1016E00003B5FFF7B9FF0EBC4243891A1847C0463D
:1016F0007047C0469C460304F0B51B0C17043F0C12
:10170000150C1E1C041C000C7E436B4347434543D1
:10171000FB18300C1818874202D980235B02ED18A1
:10172000030CED1863465C434A433604360CA1189B
:10173000000480194919F0BDF0B55F4656464D4684
:101740004446F0B44402460083B00F1C640A360ECF
:10175000C50F002E41D0FF2E22D080231B04002075
:101760001C43E4007F3E82468046391C4B007F02CA
:10177000C90F7F0A1B0E8B463BD0FF2B34D0802233
:1017800012041743FF007F3B00215A466A40019232
:1017900052460A430F2A63D87A48920082589746E5
:1017A000002C3FD10822022392469846DDE701959E
:1017B000404602282AD1019A01251540FF23002422
:1017C0006402DB05600AED071843284303B03CBC04
:1017D00090469946A246AB46F0BD002C27D1042086
:1017E000012282469046C0E7391C4A1E91410231CF
:1017F000CBE70121002FC8D0381C00F0E7F8431FC9
:101800009F4076235B421B1A0021BEE7032800D1CC
:10181000AEE001284FD1019842461040C5B20023E6
:101820000024CDE70C2303209A4680469DE7201C28
:1018300000F0CCF87626431F9C4076420023361AEF
:101840009A46984691E780240025E403FF23B7E7F2
:101850005B463C1C01938846AAE73C1C8846A7E7E8
:10186000250C24043A0C240C3F04F6183F0C211CD0
:10187000231C794353436F435543FB180A0C9B18B1
:10188000B1469F4202D980225202AD1809041A04BF
:10189000090C521894011B0C611E8C41920EED181C
:1018A0001443AD012C43230105D501226308012017
:1018B000144081441C434B467F33002B2DDD6007D1
:1018C00004D00F222240042A00D00434220103D580
:1018D0002D4B1C404B468033FE2B17DD019B012511
:1018E0001D400024FF236BE78020C003044208D082
:1018F000074206D1041C3C436402640A5D46FF2390
:101900005EE704436402640AFF2359E70198A401D7
:101910000125640ADBB2054052E77E235B424A465A
:101920009B1A1B2B05DD019B01251D400024002374
:1019300046E7221CDA404B469E339C40231C5C1E2B
:10194000A3411343580704D00F221A40042A00D0A1
:1019500004335A0105D5019B01251D4000240123B4
:101960002EE701989C010125640A0540002327E722
:101970008027FF03019B3C43640201251D40640A4C
:10198000FF231DE73C1B0000FFFFFFF74302590A3E
:101990004300C20F1B0E00207E2B0DDD9D2B0CDCA7
:1019A000802000040143952B0ADC9620C31AD940FD
:1019B0004842002A00D1081C7047034BD018FBE7AF
:1019C000963B9940F4E7C046FFFFFF7F1C210123AF
:1019D0001B04984201D3000C10391B0A984201D312
:1019E000000A08391B09984201D30009043902A2F0
:1019F000105C40187047C046040302020101010157
:101A0000000000000000000070B50E4B0E4D0024D9
:101A1000ED1AAD101E1CAC4204D0A300F358984739
:101A20000134F8E700F0AAF8084B094D0024ED1A3C
:101A3000AD101E1CAC4204D0A300F35898470134EB
:101A4000F8E770BD881B0000881B0000881B0000A1
:101A50008C1B00000D0A000000080042000C004230
:101A6000001000420014004200180042001C004216
:101A7000540E0000B00E0000B00E00004E0E00002C
:101A80004E0E00006A0E00005A0E0000700E00009C
:101A90009E0E0000380F0000980F0000980F000005
:101AA000180F00002A0F0000460F00001C0F000056
:101AB000540F0000880F000068656C6C6F20776F12
:101AC000726C64002C20000066756E207769746863
:101AD00020666C6F6174730020302E303039312DE8
:101AE0003E0000002000000020302E3039312D3E15
:101AF0000000000020302E39312D3E0020392E31DB
:101B0000302D3E002039312E302D3E00203931302D
:101B10002E302D3E0000000020393130302E302D87
:101B20003E0000002039313030302E302D3E000094
:101B3000203931303030302E302D3E00601800001A
:101B40005A1800005A18000050180000B017000082
:101B5000B01700004618000050180000B017000031
:101B600046180000B017000050180000AE17000023
:101B7000AE170000AE170000E8180000F8B5C04628
:101B8000F8BC08BC9E467047D9000000F8B5C046B6
:0C1B9000F8BC08BC9E467047B100000085
:0C1B9C0008000000401F000001000000D5
:04000003000013AD39
:00000001FF
